:020000041010DA
:10200000D8D42010512C1010592C10105B2C10100B
:102010005D2C10105F2C1010612C101000000000BF
:10202000000000000000000000000000892B1010DC
:10203000652C101000000000252C1010352C1010FD
:102040006B2C10106D2C10106F2C1010DD32101036
:10205000732C1010752C1010772C1010792C101078
:102060007B2C10107D2C1010490120100000000066
:102070000000000000000000000000000000000060
:102080000000000000000000000000000000000050
:102090000000000000000000000000000000000040
:1020A0000000000000000000000000000000000030
:1023C00000000000DFF80CD000F02AFF00480047B2
:1023D000991E1110D8D420100246D2E84F0FC2E83F
:1023E000431F03B1F9E77047024652E8000F40EA85
:1023F000010042E8000303B1F7E7704710B5024659
:1024000052E8000F20EA010442E8004303B1F7E775
:1024100010BD10B5024652E8000F00EA01048C42DC
:1024200003D0BFF32F8F002010BD20EA010442E843
:10243000004303B1EFE710BD10B5024652E8000FAC
:10244000084203D1BFF32F8F002010BD20EA010402
:1024500042E8004303B1F1E710BD024652E8000F25
:10246000411C42E8001303B1F8E7704710B502467B
:10247000D2E85F0F814202D8BFF32F8F10BD441CFA
:10248000C2E8534F03B1F3E710BD10B50246D2E8DE
:102490005F0F441CA14200D80024C2E8534F03B18F
:1024A000F5E710BD024652E8000F411E42E8001356
:1024B00003B1F8E77047024652E8000F10B9BFF3C6
:1024C0002F8F7047411E42E8001303B1F4E77047B5
:1024D0000246D2E85F0F10B9BFF32F8F7047411E3D
:1024E000C2E8531F03B1F4E77047024652E8000FF9
:1024F00010B9BFF32F8F7047016842E8001303B192
:10250000F4E7704702680A60BFF35F8F50E8002F5E
:102510000B689342F6D140E8001303B1F2E770472D
:102520000246D2E84F0FC2E8431F03B1F9E77047F4
:10253000024652E8000F40EA010042E8000303B1FE
:10254000F7E7704710B5024652E8000F20EA010491
:1025500042E8004303B1F7E710BD10B5024652E868
:10256000000F00EA01048C4203D0BFF32F8F00203C
:1025700010BD20EA010442E8004303B1EFE710BDBB
:1025800010B5024652E8000F084203D1BFF32F8F67
:10259000002010BD20EA010442E8004303B1F1E746
:1025A00010BD024652E8000F411C42E8001303B17F
:1025B000F8E7704710B50246D2E85F0F814202D8B3
:1025C000BFF32F8F10BD441CC2E8534F03B1F3E794
:1025D00010BD10B50246D2E85F0F441CA14200D8DE
:1025E0000024C2E8534F03B1F5E710BD024652E89C
:1025F000000F411E42E8001303B1F8E7704702469E
:1026000052E8000F10B9BFF32F8F7047411E42E808
:10261000001303B1F4E770470246D2E85F0F10B928
:10262000BFF32F8F7047411EC2E8531F03B1F4E779
:102630007047024652E8000F10B9BFF32F8F704762
:10264000016842E8001303B1F4E7704702680A60CA
:10265000BFF35F8F50E8002F0B689342F6D140E83C
:10266000001303B1F2E770470246D2E84F0FC2E809
:10267000431F03B1F9E77047024652E8000F40EAF2
:10268000010042E8000303B1F7E7704710B50246C6
:1026900052E8000F20EA010442E8004303B1F7E7E3
:1026A00010BD10B5024652E8000F00EA01048C424A
:1026B00003D0BFF32F8F002010BD20EA010442E8B1
:1026C000004303B1EFE710BD10B5024652E8000F1A
:1026D000084203D1BFF32F8F002010BD20EA010470
:1026E00042E8004303B1F1E710BD024652E8000F93
:1026F000411C42E8001303B1F8E7704710B50246E9
:10270000D2E85F0F814202D8BFF32F8F10BD441C67
:10271000C2E8534F03B1F3E710BD10B50246D2E84B
:102720005F0F441CA14200D80024C2E8534F03B1FC
:10273000F5E710BD024652E8000F411E42E80013C3
:1027400003B1F8E77047024652E8000F10B9BFF333
:102750002F8F7047411E42E8001303B1F4E7704722
:102760000246D2E85F0F10B9BFF32F8F7047411EAA
:10277000C2E8531F03B1F4E77047024652E8000F66
:1027800010B9BFF32F8F7047016842E8001303B1FF
:10279000F4E7704702680A60BFF35F8F50E8002FCC
:1027A0000B689342F6D140E8001303B1F2E770479B
:1027B0000246D2E84F0FC2E8431F03B1F9E7704762
:1027C000024652E8000F40EA010042E8000303B16C
:1027D000F7E7704710B5024652E8000F20EA0104FF
:1027E00042E8004303B1F7E710BD10B5024652E8D6
:1027F000000F00EA01048C4203D0BFF32F8F0020AA
:1028000010BD20EA010442E8004303B1EFE710BD28
:1028100010B5024652E8000F084203D1BFF32F8FD4
:10282000002010BD20EA010442E8004303B1F1E7B3
:1028300010BD024652E8000F411C42E8001303B1EC
:10284000F8E7704710B50246D2E85F0F814202D820
:10285000BFF32F8F10BD441CC2E8534F03B1F3E701
:1028600010BD10B50246D2E85F0F441CA14200D84B
:102870000024C2E8534F03B1F5E710BD024652E809
:10288000000F411E42E8001303B1F8E7704702460B
:1028900052E8000F10B9BFF32F8F7047411E42E876
:1028A000001303B1F4E770470246D2E85F0F10B996
:1028B000BFF32F8F7047411EC2E8531F03B1F4E7E7
:1028C0007047024652E8000F10B9BFF32F8F7047D0
:1028D000016842E8001303B1F4E7704702680A6038
:1028E000BFF35F8F50E8002F0B689342F6D140E8AA
:1028F000001303B1F2E770470246D2E84F0FC2E877
:10290000431F03B1F9E77047024652E8000F40EA5F
:10291000010042E8000303B1F7E7704710B5024633
:1029200052E8000F20EA010442E8004303B1F7E750
:1029300010BD10B5024652E8000F00EA01048C42B7
:1029400003D0BFF32F8F002010BD20EA010442E81E
:10295000004303B1EFE710BD10B5024652E8000F87
:10296000084203D1BFF32F8F002010BD20EA0104DD
:1029700042E8004303B1F1E710BD024652E8000F00
:10298000411C42E8001303B1F8E7704710B5024656
:10299000D2E85F0F814202D8BFF32F8F10BD441CD5
:1029A000C2E8534F03B1F3E710BD10B50246D2E8B9
:1029B0005F0F441CA14200D80024C2E8534F03B16A
:1029C000F5E710BD024652E8000F411E42E8001331
:1029D00003B1F8E77047024652E8000F10B9BFF3A1
:1029E0002F8F7047411E42E8001303B1F4E7704790
:1029F0000246D2E85F0F10B9BFF32F8F7047411E18
:102A0000C2E8531F03B1F4E77047024652E8000FD3
:102A100010B9BFF32F8F7047016842E8001303B16C
:102A2000F4E7704702680A60BFF35F8F50E8002F39
:102A30000B689342F6D140E8001303B1F2E7704708
:102A40000246D2E84F0FC2E8431F03B1F9E77047CF
:102A5000024652E8000F40EA010042E8000303B1D9
:102A6000F7E7704710B5024652E8000F20EA01046C
:102A700042E8004303B1F7E710BD10B5024652E843
:102A8000000F00EA01048C4203D0BFF32F8F002017
:102A900010BD20EA010442E8004303B1EFE710BD96
:102AA00010B5024652E8000F084203D1BFF32F8F42
:102AB000002010BD20EA010442E8004303B1F1E721
:102AC00010BD024652E8000F411C42E8001303B15A
:102AD000F8E7704710B50246D2E85F0F814202D88E
:102AE000BFF32F8F10BD441CC2E8534F03B1F3E76F
:102AF00010BD10B50246D2E85F0F441CA14200D8B9
:102B00000024C2E8534F03B1F5E710BD024652E876
:102B1000000F411E42E8001303B1F8E77047024678
:102B200052E8000F10B9BFF32F8F7047411E42E8E3
:102B3000001303B1F4E770470246D2E85F0F10B903
:102B4000BFF32F8F7047411EC2E8531F03B1F4E754
:102B50007047024652E8000F10B9BFF32F8F70473D
:102B6000016842E8001303B1F4E7704702680A60A5
:102B7000BFF35F8F50E8002F0B689342F6D140E817
:102B8000001303B1F2E770471EF0040F0CBFEFF320
:102B90000880EFF30980816911F8021C002932D105
:102BA00001B590E80F10E047BDE80050CCF80000F8
:102BB000244B93E80600914208BF70471A6041B960
:102BC0001EF0100F10D1204B186820F00100186083
:102BD0000AE02CE9F00F1EF0100F08BF2CED108A50
:102BE00081F822E0C1F838C0906B92F8221061F0B1
:102BF000FF0E1EF0100F08BFB0EC108AB0E8F00F07
:102C000080F309887047114A13689942FAD801B5D0
:102C100052F821C00FC8E047BDE80050CCF80000D2
:102C20007047000001B510F03DFBBDE80140EFF337
:102C3000098CBDE701B510F033FDBDE80140EFF3AD
:102C4000098CB5E77886201034EF00E0B01D201025
:102C50000B4880470B480047FEE7FEE7FEE7FEE72C
:102C6000FEE7FEE7FEE7FEE7FEE7FEE7FEE7FEE73C
:102C7000FEE7FEE7FEE7FEE7FEE7FEE7FEE7FEE72C
:102C8000B14E1010C523101040EA01039B0703D07A
:102C900009E008C9121F08C0042AFAD203E011F89B
:102CA000013B00F8013B521EF9D27047D2B201E05D
:102CB00000F8012B491EFBD270470022F6E710B541
:102CC00013460A4604461946FFF7F0FF204610BD9A
:102CD00010B5044604E00B7800F8013B03B1491C31
:102CE000521EF8D2204610BD421C10F8011B0029CC
:102CF000FBD1801A704730B504460020034600E03F
:102D00005B1C934203D2E05CCD5C401BF8D030BD2D
:102D1000034611F8012B00F8012B002AF9D11846BF
:102D200070472DE9F04D81EA030404F0004B21F0D7
:102D3000004514464FF0000A23F0004150EA050216
:102D400020D054EA01021DD0C5F30A570246C5F34C
:102D50001303C1F31300C1F30A5640F4801543F482
:102D60008013A7EB0608101BD64608F2FD3873EB5C
:102D7000050002D308F1010801E092185B41B8F1A7
:102D8000000F03DA00200146BDE8F08D00204FF46B
:102D90008011064684460EE0171B73EB050705D32A
:102DA000121B63EB050306434CEA010C49084FEA8A
:102DB000300092185B4150EA0107EDD152EA03005E
:102DC00012D082EA040083EA0501084305D0101BF3
:102DD000AB4106D20122002306E000224FF000435F
:102DE00002E06FF0010253101AEB06004CEB0851A1
:102DF00010EB0A0041EB0B01BDE8F04D00F06AB8A2
:102E000000F0004230F000400AD0C10D01F56071C1
:102E1000C0F3160042EA0151C2084007114370474F
:102E200000200146704730B50B46014600202022A5
:102E3000012409E021FA02F59D4205D303FA02F5C7
:102E4000491B04FA02F52844151EA2F10102F1DC27
:102E500030BD2DE9F05F0546002092469B4688462E
:102E60000646814640241BE0284641464746224606
:102E700000F020F853465A46C01A914110D311462B
:102E80001846224600F0DEF92D1A67EB01084F467E
:102E900022460120002100F0D5F917EB00094E4130
:102EA000201EA4F10104DFDC484631462A46434691
:102EB000BDE8F09F202A04DB203A21FA02F000212D
:102EC000704721FA02F3D040C2F12002914008433A
:102ED0001946704710B5141E73F1000408DA401C3F
:102EE00041F1000192185B411A4301D120F0010029
:102EF00010BD2DE9F04D92469B4611B1B1FA81F219
:102F000002E0B0FA80F22032904600F09BF90446CD
:102F10000F4640EA0A0041EA0B0153465A4608436D
:102F200013D0114653EA010019D0C8F140025046AF
:102F3000FFF7C0FF05460E4650465946424600F090
:102F400081F9084305D0012004E020463946BDE858
:102F5000F08D0020054346EAE0762C4337430A987B
:102F60006305E40AA0EB08000022FD0A44EA475486
:102F70000A3002D500200146E9E701051019694130
:102F8000DDE9084500196941BDE8F04DA2E72DE9EA
:102F9000FE4F804681EA0300C00F0C46009021F0EE
:102FA000004123F00045B8EB0200A94105D240469C
:102FB000214690461C460B46024623F00040104333
:102FC00047D0270DC7F30A00C3F30A510290401AF5
:102FD000019040286BDAC3F3130040F4801B009883
:102FE000924620B10023D2EB030A63EB0B0B01984E
:102FF0005946C0F14002504600F024F906460D46FD
:1030000050465946019A00F02CF910EB0800614136
:10301000002487EA115284EAE7731A4340D0009AE9
:1030200062B3019A012A4FEA075215DC001B61EBDB
:1030300002014FF0004202EA0752CDE90042001CB3
:1030400041F5801132462B46FFF753FF03B0BDE830
:10305000F08F40462146F9E7001B61EB0201001C9E
:1030600041F5801300185B412018A2F5001747EBCB
:10307000030140EAD570B6196D4111E06D084FEAC1
:10308000360645EAC0754FEA0752001B61EB0201A4
:10309000001C41F5801149084FEA300000195141E8
:1030A00032462B4603B0BDE8F04FFFF713BF009840
:1030B000012240000023D0EB020263EBE073009892
:1030C00021464FEAE074B8EB000061EB0401E9E748
:1030D00083F000435BE781F0004158E72DE9FE4FA4
:1030E00081EA030404F0004421F0004100944FF011
:1030F000000B23F0004350EA01045ED052EA0304BF
:103100005BD0C3F30A54C1F30A552C44A4F2F33440
:103110000194A0FB0254C1F3130141F48011C3F3E5
:10312000130343F4801301FB024400FB034E840AA3
:10313000970A44EA815447EA8357A4FB076802953B
:103140008D0A05FB07854FEA932C04FB0C542705D9
:10315000029D4FEA065847EA1637B5EB08056EEBB5
:10316000070C870E920E47EA811742EA8312A7FBEB
:103170000201B6EB0B0164EB00042B0D43EA0C33A8
:103180005E1844EB1C50DA465146E7FB0201C5F3DA
:1031900013044FEA0B3343EA14534FEA0432019C01
:1031A00043EA0603A4F10C040294009CCDE900B4A8
:1031B000FFF79FFE03B0BDE8F08F00200146F9E75E
:1031C000C1F30A52C1F3130140F2FF3341F48011FD
:1031D0009A4202DA00200146704740F233439A4295
:1031E000A2F2334202DC5242FFF764BE00F02AB87A
:1031F00030B5041E71F1000404DB4FF0004440427E
:1032000064EB0101141E73F1000405DB1C464FF052
:103210000043524263EB0403994208BF904230BD21
:10322000064C074D06E0E06840F0010394E8070013
:1032300098471034AC42F6D3FFF7C8F8B87E1110A7
:10324000087F1110202A04DB203A00FA02F1002046
:1032500070479140C2F1200320FA03F319439040D4
:103260007047202A06DBCB17203A41FA02F043EAE6
:10327000E07306E041FA02F3D040C2F1200291402F
:1032800008431946704770B58C1810F8015B15F0AB
:10329000070301D110F8013B2A1106D110F8012BC8
:1032A00003E010F8016B01F8016B5B1EF9D12B07ED
:1032B00005D40023521E0DD401F8013BFAE710F8A3
:1032C000013BCB1A921C03E013F8015B01F8015B90
:1032D000521EF9D5A142D8D3002070BD074810B5C1
:1032E00041680C68002C08D08168214381600A2065
:1032F00005F05CFE02488460046110BD787C2010FB
:10330000000010A0BFF35F8F0748016821F48031EF
:10331000016005487030016821F001010160BFF3D0
:103320004F8FBFF36F8F704724ED00E0234908B142
:10333000032801D900207047012804D0022815D0A5
:10334000032839D125E008684007086802D540F015
:10335000040030E0C007086802D040F001002AE015
:10336000800729D5086840F0020024E0086880063C
:10337000086802D540F020001DE00007086802D56B
:1033800040F0080017E0C00616D5086840F01000AD
:1033900011E00868C005086802D540F480700AE0B2
:1033A0004006086802D540F0400004E0000603D55E
:1033B000086840F08000086001207047340000C2B7
:1033C000FEB506464AF6EF20ADF804000D4650BAA9
:1033D000ADF808001446511D2846FFF76EFC2B1D62
:1033E000324610210B48009404F08EFD201D82B25D
:1033F00004212846FDF018F929190871BDF80400C8
:1034000004492880BDF80800083968800888401DF4
:103410000880FEBD2884201070B500252C460128A8
:1034200011D0022811D0032812D0042813D0052867
:1034300014D0012511A101200BF0C6FB0120FDF0E5
:1034400080FF284670BD13A10AE0032415A107E000
:10345000022418A104E001251AA1ECE701241DA112
:1034600001200BF0B1FB0020FDF06BFF32200FF0CC
:1034700037FC20460EF0F8F9E3E700004E6F7420A9
:10348000737570706F7274656420424155440D0A03
:1034900000000000424155445F3131353230300D7B
:1034A0000A000000424155445F3233343030300D61
:1034B0000A000000424155445F3436303830300D48
:1034C0000A000000424155445F3135303030303021
:1034D0000D0A0000424155445F3932313630300D1B
:1034E0000A000000F0B5054600269BB03446C8210E
:1034F000401CFFF7E2FB694619A80DF0C7FD9DF8D7
:103500006400642802D964208DF864006F460BE0E3
:10351000385DFCF03AFFADF8680005EB4400BDF8FB
:103520006810A0F80110641C9DF864008442EFDB71
:1035300028701BB03046F0BD70B50D4C054694F8B0
:10354000600004280DD0002048700870638F094A7D
:1035500009A101200BF038FB94F8600028700020CE
:1035600070BD608F000A087094F83A004870EDE76B
:103570005C912010A01C20105B25735D207061639E
:103580006B65745F69643A2025640D0A00000000D1
:103590002DE9F04196B00D46804607F015FB00B3CB
:1035A000082700246E46FDF0ABFA0020ADF84C0071
:1035B000ADF85400ADF8500023212846FFF77DFBFD
:1035C0004C216846FFF779FBE0B24C226946FDF7D3
:1035D0007FFBA0B214AB15AA13A9FDF793FB20BB88
:1035E00003E0062016B0BDE8F081BDF84C00E0B164
:1035F000BDF85000012818D12046FDF053F9404590
:1036000013D196F8210085F8220020223146A81C0B
:10361000FFF73AFB2046FDF045F9000A28702046E6
:10362000FDF040F96870002702E0641C642CC7DBE1
:103630003846D7E7FEB5044600279421FFF73DFB47
:10364000FDF0B0FC2060FDF0D9FB606022682BA18A
:1036500001200BF0B9FA62682BA101200BF0B4FA3B
:1036600001A8FDF7C1FE0198A06001A80DF082FF3E
:103670000198E060781EFDF7F9FCFDF073FBC6B21F
:10368000324626A101200BF09FFA0F2E05D93346B2
:103690000F2227A101200BF097FA00250FE0284602
:1036A0000BF00CFE04EBC5010368CB6140680862B7
:1036B00000902A462CA101200BF086FA6D1CB54221
:1036C000EDDB314800780DF0B3FA20822F48007806
:1036D0000DF0AEFA6082FDF06CFCA082FDF72AFED0
:1036E0002083FDF085FC6083A08A0090638A228A93
:1036F00027A101200BF068FA3846FEBD534E3A2050
:10370000307825580D0A0000626F6F745F7665721D
:1037100073696F6E3A2025580D0A00006D6F64655D
:103720006C5F636F756E743A25640D0A00000000CB
:103730005B4572725D6465766963655F696E666F2D
:103740002D3E6D6F64656C732073697A6520256406
:1037500028256429206973206E6F7420656E6F754B
:1037600067680D0A00000000282564292E206D6F6F
:1037700064656C2025642076657273696F6E3A20EB
:10378000307825780D0A0000187A2010197A201058
:1037900073656E736F725F69645F303A3078255875
:1037A0002C2073656E736F725F69645F313A307895
:1037B00025582C20666C6173685F69643A307825FF
:1037C00058200D0A0000000030B58FB005460024D7
:1037D00002A8FDF709FE0CA80DF0CCFE202104A8DC
:1037E000FFF76BFA9DF80B109DF80A00CDE9000178
:1037F0009DF809309DF8082005A104A801F0EEFD10
:10380000202204A92846FFF73FFA0FB0204630BD1A
:103810005A462D4250332D582D32352D5625642EC3
:1038200025642E25642E25640000000030B58BB081
:103830000546002408A8FDF7D7FD20216846FFF7BC
:103840003CFA01231A4606A1684601F0C7FD202272
:1038500069462846FFF718FA0BB0204630BD000035
:103860004250332D5625642E2564000030B58FB0AC
:103870000546002404A8FDF7B7FD202106A8FFF7A0
:103880001CFA9DF811009DF813209DF81210059B5D
:103890008DE80F009DF8103006A207A106A801F0E0
:1038A0009DFD202206A92846FFF7EEF90FB020461D
:1038B00030BD0000420000005A462D4250332D58C2
:1038C0002D32352D25732D5625642E25642E256425
:1038D0002E25642D28256429000000002DE9FF41D4
:1038E000BAB01D462EA80DF0CDF9102132A8FDF773
:1038F00007FD354E012801D1707930B132481021D1
:103900001830FDF7FDFCD8B306E032AC94E80F00A8
:1039100006F1180484E80F007C2106A8FFF7CDF912
:10392000FDF072FA069014212846FFF7C6F90698B2
:10393000FCF02AFC286000241021281DFFF7BDF9A7
:10394000224B02AF0FCB87E80F0020492022103115
:1039500025A8FFF799F9042202A93AA80EF050FB16
:10396000102202A925A8FDF7D7FD10211848FFF75E
:10397000A4F9DFF8548025AF08F11808144D00E0D1
:1039800009E018F804003A5C2A550A2A07D30F2ADE
:1039900005D8573206E001203EB0BDE8F081092A83
:1039A00002D830322A5503E00AA101200BF00CF9AD
:1039B000641CE4B2102CE2D39DF8EC00022800D085
:1039C000012030710020E7E7B0832010701C201028
:1039D000288420106E6F74207265636F676E697A39
:1039E000656420636861723A3078253032780D0A58
:1039F00000000000F8B5344C94F8601004295BD145
:103A000094F86110012957D101462D222046FFF775
:103A10003BF9E079A17900EB012086B22079A0B9C9
:103A2000607990B98EB1E0782178A27800EB0160DE
:103A30006178090401EB02214518607A217AB5F515
:103A4000806F00EB012087B201D80620F8BD2687E1
:103A50002846656307F09AFF002823D0012184F8E7
:103A60006810606619A10120626E0BF0ADF8334654
:103A70002A461CA1012000970BF0A6F825A0FDF70F
:103A800013FB00256019817A24A0FDF70DFB6D1C46
:103A9000202DF7DB23A101200BF096F894F86800A5
:103AA00038B10BE04FF0C0406066002084F8680039
:103AB000D8E713F05BFC08B10120F8BD022084F8C0
:103AC00061000020F8BD00005C9120106F7461203F
:103AD000646472206D656D20616464723A25780DAE
:103AE0000A0000006673697A653A2030782558200C
:103AF0002C206E756D5F706B743A203078255820DD
:103B00002C20705F73697A653A20307825580D0A49
:103B1000000000006D64353A0000000020253032BE
:103B2000580000000A0D0A002DE9F041264C054618
:103B30000F4694F86100022801D003283CD1C5F358
:103B4000072000EB052086B2324620A101200BF0B1
:103B50003BF8608FB0420CD1208FB04209D3280EC1
:103B6000290C00EB012085B2D4E90C0142199142E5
:103B700002D20620BDE8F081616E2A46084439462B
:103B8000FFF782F8206B28442063608F401C608719
:103B9000032084F86100FCF0B3FB012812D104205B
:103BA00004F8610F0EA101200BF00EF8E079012856
:103BB00004D113F0DBFB08B10120DBE74FF4007008
:103BC000FDF0A8FC0020D5E75C9120106F74612007
:103BD000706B74206964203A25640D0A00000000AF
:103BE00047657420616C6C206F7461207061636B39
:103BF0006574732E2E2E0D0A0000000070B50C4661
:103C00000546042803D8322C01D35F2C01D90620A5
:103C100070BDFDF00DF82046FDF0EAF823462A4677
:103C200002A101200AF0D0FF002070BD536574206E
:103C300066722074683A2025642C206C76207468A3
:103C40003A2025640D0A00002DE9F0410E460500DA
:103C50004FF0000804D0012D02D00620BDE8F0810D
:103C60000C4C01200021A071237AE27928460DF046
:103C7000C3FC002801DA1620F0E70746FDF0D4F96E
:103C800030603B462A4604A1012067610AF09CFF90
:103C90004046E3E7B0832010696D6167655F6E752C
:103CA0006D3A25642C206375725F696D6167655F8D
:103CB00073697A653A25640D0A00000010B5114C4D
:103CC0008CB004F1180C8CE80F0068460CF0DAFF99
:103CD000102204F1180104A8FFF70DF868B10AA139
:103CE00001200AF071FF04F118000DF1100C0FC84B
:103CF0008CE80F006846FDF0D5F8002060710CB02C
:103D000010BD0000B0832010536176652072656C91
:103D100065617365206B657920746F20666C6173D3
:103D2000680D0A0010B5014600240748012907D094
:103D30000021817005A101200AF046FF204610BD38
:103D40000121817006A1F6E7B083201044697361F8
:103D5000626C652044656D6F4D6F64650D0A0000EF
:103D6000456E61626C652044656D6F4D6F64650DD5
:103D70000A0000002DE9FE4381461746884601A847
:103D8000FDF732FB9DF805609DF806509DF8074051
:103D90002B46324616A1012000940AF015FF434637
:103DA0004A461AA1012000970AF00EFFA8450AD141
:103DB000B14508D1A74206D11BA101200AF004FF9A
:103DC0000620BDE8FE831D480021042280F85E1015
:103DD00080F85D1080F85C1080F860204187012237
:103DE000016380F86120164801710846E9E7000088
:103DF00043757272656E742076657273696F6E3A80
:103E00002025642E25642E25640D0A004F74612040
:103E100076657273696F6E3A202020202025642E0B
:103E200025642E25640D0A0076657273696F6E2015
:103E300069732073616D65210D0A00005C9120108B
:103E4000B083201070B50D460646002410F0A0F88F
:103E5000C2B22A7033460FA101200AF0B5FE012E2E
:103E600007D056B113A101200AF0AEFE0624204669
:103E700070BD287850B114A103E02878012805D03E
:103E800015A101200AF0A0FE0124F0E7FCF089FA58
:103E9000EDE7000043757272656E742F5377697495
:103EA000636820706172743A2025642F25640D0ABE
:103EB00000000000496E76616C6964207061726177
:103EC0006D657465720D0A00416C726561647920DC
:103ED000696E20420D0A0000416C726561647920B0
:103EE000696E20410D0A00002DE9F047114F06468A
:103EF0008946106879690024DFF83480304415461B
:103F0000884206D30CA101200AF05EFE7869801B6E
:103F10002860B87940B1286820B108EB0600C9F8DC
:103F2000000002E0192400E018242046BDE8F087D4
:103F30000000E361B083201075706C6F61642069CC
:103F40006D61676520656E640D0A0000FEB506466A
:103F50004AF6EF20ADF804000D4650BAADF808005F
:103F60001446511D2846FEF7A8FE281D0090102378
:103F70000C4A2146304605F087F9201D82B2042103
:103F80002846FCF051FB29190871BDF804000549C9
:103F90002880BDF80800083968800888401D08801E
:103FA000FEBD0000288420100F4A02F10C03916826
:103FB000E0E9081300211960926802631A1D426348
:103FC00011600A4AC0E911214FF40052C264A0F8FE
:103FD0005A1001650622416580F85C20044A01669A
:103FE000C0E91A2170470000248120100036F461D6
:103FF0000056F4612DE9F0410446807B012600253E
:10400000062814D0464F4FF00208072828D0082869
:1040100039D04FF0C04109284AD00A2850D00B2887
:1040200057D00C2861D088263046BDE8F08194F83E
:104030007C0058B1012809D0042807D0022805D0F7
:10404000032803D0052801D04EF6E266A4F87A5082
:1040500044F8745F4FF6FF70A08006202072E3E7FB
:1040600010F00CFAB86802280AD0C4F8748028202E
:10407000A4F87A00A4F8785084F87C50000312E089
:1040800041206067F3E7FDF769FD786902280DD0EC
:104090002A2060671020A4F87A00A4F87850012044
:1040A00084F87C000004C4F8800032E06920F0E766
:1040B0004FF4A2706067A4F8785084F87C8026E002
:1040C00040F6D3706067A4F87850032084F87C0031
:1040D0001DE040F243106067A4F87850042084F893
:1040E0007C001048C4F8880013E0D4F8940000F570
:1040F000A210000B6067A4F87850052084F87C00BB
:10410000D4F8A000020BA4F87A20C4F88000C4F808
:104110008810C4F88C50C4F89050256784E70000DC
:104120004C9020100056F46170B51C4D1C4E044696
:10413000A968B068022901D102282ED06A69022A32
:1041400002D17269022A28D0022901D1022C02D0A0
:10415000022805D00BE04FF424314FF4005004E066
:10416000412C04D14FF4D02120030AF069FD686985
:10417000022801D12A2C0BD0706902280DD1692C9C
:104180000BD14FF4F0212003BDE870400AF058BD78
:104190004FF464314FF42830F6E770BD34902010AE
:1041A0004C90201010B500231A46C40700D04B4095
:1041B00011F0800F4FEA41614FEA116101D081F0A7
:1041C0001B014008521C082AEFDB184610BD0000F6
:1041D0000848C17D20290BD1B0F80F00012805D077
:1041E000062803D0022803D10CF050BCFCF042BEDC
:1041F00070470000C89120102DE9FE43884607460D
:104200003A4CFCF0C4F80546B81CFCF0C0F8064671
:10421000A07B0321B1EB101F3ED10096D4F80230F1
:104220002A4633A101200AF0CFFC207E012818D0B5
:10423000D4F80A00A8422DD3D4F80200401EA842A8
:1042400002D02188B14208D0A84223D1D4F8061068
:10425000228805FB1211B1421CD1B8F1750F02D0B2
:1042600004E0342619E0A17B322901D0FF2614E0B6
:10427000E288796892B200920023CDE9011382B2FC
:104280002388284631460CF08FFBC0B200F046F878
:10429000064602E0062600E0302600231A46414684
:1042A0003046FDF7A3FD0EB1362E1DD1D4F80A001D
:1042B000A84209D1401CC4F80A00D4F80210884270
:1042C00002D10120207602E0207E01280CD1B8F135
:1042D000750F06D0FBF0F8FFBDE8FE430020FDF0AF
:1042E00056B82020E075F7E7BDE8FE83C89120109E
:1042F000706B74206964783A25642C20746F746143
:104300006C206E756D3A25642C20706B7420736977
:104310007A653A25642E0D0A00000000002808D0B6
:10432000012807D0022807D0032807D0042800D18D
:104330003220704736207047342070473120704754
:10434000FEB5064690F82A702B30FCF020F80500E8
:1043500002D0322F08D103E00125322F04D105E02D
:10436000012D03D0062D01D00620FEBDFBF0ACFFD1
:104370000F4C06F10800FCF00AF82080301DFCF01C
:1043800009F844F8020F3046FCF004F86060277327
:10439000A4F80D506168F8B2CDE9001002952368C9
:1043A00034F8022C03A101200AF00EFC0020FEBD0F
:1043B000C8912010706B742073697A653A25642C5B
:1043C000206E756D20706B743A25642C20746F74A8
:1043D000616C2073697A653A25642C207479706564
:1043E0003A25642C206578743A25642E0D0A000065
:1043F00070B50024234608E0CD181B1DEE782D680B
:1044000066F31F6540F82450641C9342F4D370BDDA
:104410007CB5044600880E46C0F3C500382802D299
:10442000C0F1380501E0C0F1780508222146684650
:10443000FBF7B7FE2A460849204600F07FFB08221A
:104440006946204600F07AFB102204F1080130464C
:10445000FBF7A7FE7CBD0000DF8320100021016078
:104460004160054981600549C1600349C943016153
:104470000249C943416170470123456789ABCDEFCC
:104480002DE9F0410446C0B054F8048B402294E872
:10449000E0006846241FFFF7ABFF05EA060027EAA5
:1044A00005010843FE49009A014402EB0800084454
:1044B00005EB706000EA050126EA00021143F94AA3
:1044C0001144019A3A44114400EB315303EA0001CC
:1044D00025EA03021143F44A1144029A324411447A
:1044E00003EBF13101EA030220EA01063243EF4E09
:1044F0003244039E35442A4401EBB22202EA01050C
:1045000023EA02063543EA4E3544049E30442844EB
:1045100002EB706000EA020521EA00063543E54E31
:104520003544059E33442B4400EB335303EA000526
:1045300022EA03063543E04E3544069E31442944C1
:1045400003EBF13101EA030520EA01063543DB4EB6
:104550003544079E32442A4401EBB22202EA0105A7
:1045600023EA02063543D64E3544089E304428449B
:1045700002EB706505EA020021EA05063043D14EE0
:104580003044099E3344184405EB305000EA0503DB
:1045900022EA000633430A9EA3F5244331444F3BED
:1045A000194400EBF13303EA000125EA0306314325
:1045B000C54E31440B9E3244114403EBB12101EA54
:1045C000030220EA01063243C04E32440C9E3544B9
:1045D0002A4401EB726202EA010523EA020635432E
:1045E000BB4E35440D9E3044284402EB305505EA5D
:1045F000020021EA05063043B64E30440E9E334495
:10460000184405EBF03000EA050322EA00063343C4
:10461000B14E33440F9E3144194400EBB12101EAFD
:10462000050320EA05063343AC4E3344019E324471
:104630001A4401EBF26202EA000321EA0006334366
:10464000A74E3344069E35442B4402EBF35303EA52
:10465000010522EA01063543A24E35440B9E304443
:10466000284403EBB04000EA020523EA0206354382
:104670009D4E3544009E3144294400EB313101EA1E
:10468000030520EA03063543984E3544059E32441F
:104690002A4401EBF26202EA000521EA00063543F2
:1046A000934E35440A9E33442B4402EBF35303EA02
:1046B000010522EA010635438E4E35440F9E3044F3
:1046C000284403EBB04000EA020523EA0206354322
:1046D000894E3544049E3144294400EB313101EACE
:1046E000030520EA03063543844E3544099E3244CF
:1046F0002A4401EBF26202EA000521EA0006354392
:104700007F4E35440E9E33442B4402EBF35303EAB1
:10471000010522EA010635437A4E3544039E3044B2
:10472000284403EBB04000EA020523EA02063543C1
:10473000754E3544089E3144294400EB313101EA7D
:10474000030520EA03063543704E35440D9E32447E
:104750002A4401EBF26202EA000521EA0006354331
:104760006B4E3544029E33442B4402EBF35303EA71
:10477000010522EA01063543664E3544079E304462
:10478000284403EBB04000EA020523EA0206354361
:10479000614E35440C9E31442944059D00EB313176
:1047A000154481EA00025D4E5A4032442A44089D75
:1047B00001EB32721D4482EA01034340584E3344F8
:1047C0002B440B9D02EB7353054483EA0200554EC4
:1047D00048403044284403EB30450E98524E014483
:1047E00085EA030050403044084405EB70260198E8
:1047F000811886EA05004D4A58401044084406EBEB
:1048000030720498C11882EA0600494B6840184487
:104810000844079902EB70504B1980EA0201454D9C
:104820007140294419440A9B00EB31419D1981EAEA
:104830000003414E534033442B440D9D01EB732341
:10484000154483EA01023D4E424032442A44009D11
:1048500003EB3272054482EA0300394E484030448B
:10486000284402EB70550398364E014485EA020055
:1048700058403044084405EB30410698324E03441A
:1048800081EA0500504030441844099B01EB702038
:10489000134480EA01022D4E6A4032441A4457E024
:1048A00078A46AD756B7C7E8DB702024EECEBDC126
:1048B000AF0F7CF52AC68747134630A8019546FD01
:1048C000D8988069AFF7448BBED75C892211906B72
:1048D000937198FD8E4379A62108B44962251EF68E
:1048E00040B340C0515A5E26AAC7B6E95D102FD624
:1048F0005314440281E6A1D8C8FBD3E7E6CDE121F9
:10490000D60737C3870DD5F4ED145A4505E9E3A959
:10491000F8A3EFFCD9026F678A4C2A8D4239FAFF5F
:1049200081F6718722619D6D0C38E5FD44EABEA4D5
:10493000A9CFDE4B604BBBF670BCBFBEC67E9B28CA
:10494000FA27A1EA8530EFD4051D880439D0D4D9DF
:104950000C9B00EB32721D4482EA0003644E4B4014
:1049600033442B440F9D02EB73530D4483EA020141
:10497000604E414031442944029D03EB31410544DE
:1049800081EA03005C4E50403044284401EB70251E
:1049900000985A4E024465EA0300484030441044EF
:1049A000079A05EBB060134460EA0102544E6A4076
:1049B00032441A440E9B00EBB2520B4462EA0501EA
:1049C000504E414031441944059B02EB71411D4456
:1049D00061EA00034C4E534033442B4401EBF32572
:1049E0000C9B4A4E034465EA020048403044184498
:1049F00005EBB0660398464B024466EA0100684046
:104A00001844104406EBB0530A98014463EA0500C9
:104A1000404A704010440844019903EB70404A1921
:104A200060EA06013C4D594029441144089A00EBC4
:104A3000F121951961EA0302384E424032442A447A
:104A40000F9D01EBB2621D4462EA0003344E4B40FD
:104A500033442B44069D02EBB353054463EA010043
:104A6000304E50403044284403EB70450D982E4E94
:104A7000014465EA0200584030440844049905EBBB
:104A8000F0200A4460EA0301284E69403144114491
:104A90000B9A00EBB161134461EA0502244E4240D7
:104AA00032441A4401EBB253029A224E154463EA8F
:104AB00000024A4032442A44099D03EB72420544F5
:104AC00062EA01001C4E584030442844256802EB3D
:104AD000F02029442160616808446060A0681044A7
:104AE000A060E0681844E06040B0BDE8F0810000DC
:104AF000E599DBE6F87CA21F6556ACC4442229F494
:104B000097FF2A43A72394AB39A093FCC3595B6555
:104B100092CC0C8F7DF4EFFFD15D84854F7EA86F22
:104B2000E0E62CFE144301A3A111084E827E53F748
:104B300035F23ABDBBD2D72A91D386EB2DE9F047A7
:104B4000054616462A680F46C2F3C50102EBC602A7
:104B500000202A60B2EBC60F6A68C1F1400401D29E
:104B6000521C6A6002EB56726A60A64218D368183B
:104B7000224639461830FEF787F805F1080005F19E
:104B800018018146FFF77CFC204604E039184846AE
:104B9000FFF776FC404600F14008B045F6D9002109
:104BA000321A3B186818BDE8F04719461830FEF76E
:104BB0006BB810B504462830FDF7C5FD50B1E46A66
:104BC00005E00121A01CFDF74FFD20B1A468002CD9
:104BD000F7D100E00024204610BD0000FEB5244CB3
:104BE00000262046A36840689A68012A02D0022A5B
:104BF00002D011E0002500E0012500EB850779696E
:104C0000012909D103EB850CDCF80CC0BCF1030FC2
:104C100011D0BCF1020F18D01E69D96885694369AB
:104C20008DE8620013A1022009F0CEFFA068806821
:104C300065300ED013E00221796122682846904742
:104C4000606800EB8500466109E0226828469047CD
:104C500005E014A1022009F0B7FF0FF081FFFCF07E
:104C600055FB17494FF40020C1F88002FEBD00003B
:104C700078842010534350553A2077726F6E672026
:104C80007374617475733A2025643A205B305D203B
:104C900025642F25642C205B315D2025642F25643D
:104CA0000A000000444452206661756C742C206236
:104CB0006F6172642072657365742E2E2E2E0A0049
:104CC00004E000E04FF0FF3138B10B4A1268B2FB4C
:104CD000F0F0401EB0F1807F01D308467047074ACC
:104CE000FF2111704FF0E02106220A614861002087
:104CF00088610349087070473884201023ED00E074
:104D00001033201010B508B1022010BD104CD4E9AA
:104D10000C32934204D00FA1012009F055FF0EE0A0
:104D2000606E00F041F8012801D011A104E0606E2E
:104D30000EF022FE28B113A1012009F045FF012049
:104D400010BD16A1012009F03FFF002010BD00009A
:104D50005C9120106F74612073697A65206D6973AE
:104D60006D617463683A25642C25642E0D0A000079
:104D70006F7461206D6435206661696C65642E0D09
:104D80000A0000006F7461206E6F74207375636396
:104D900065656465642E0D0A000000006F74612073
:104DA000646F6E652E0D0A0070B51B4E8EB009A99A
:104DB000726B0DF025F901A909A80DF0FFF817A0F5
:104DC000FCF772F9002401AD16A0295DFCF76CF91F
:104DD000641CE4B2202CF7D314A1012009F0F4FEE6
:104DE0000023F118E85C897A884209D0C0B20090AB
:104DF0000F4A10A1012009F0E7FE00200EB070BD9F
:104E00005B1CDBB2202BECD3094A10A1012009F076
:104E1000DBFE0120F2E700005C9120106D6435207C
:104E200033323A0020253032580000000A0D0A00C3
:104E3000DB1C20105B25735D204641494C3A205B0A
:104E400025645D3A2025640D0A0000005B25735D32
:104E500020436865636B73756D204F4B0D0A00002E
:104E600010B50648FCF0C0F80320FCF7BFF9034872
:104E700008388168491C816010BD0000147C201036
:104E800010B50648FCF0B2F80520FCF7AFF903486E
:104E900010380169491C016110BD00001C7C201004
:104EA000024901480860704700C2EB0B38842010AB
:104EB00007490648086006488030016841F47001DF
:104EC0000160054903480860704700000020101089
:104ED00008ED00E000C2EB0B38842010930707D4E4
:104EE000D20700F1280001D0FDF7C7BDFDF7D8BDFE
:104EF000806AD30702D031EA000304D102F0010234
:104F000001400A4300D100207047000030B50C4C2E
:104F10000023626C02E01346D268491B12B1156986
:104F20008D42F8D98360C0E903211AB11569691A65
:104F3000116190600BB1D86030BD606430BD00007D
:104F40006486201000B5030001D0032B01D9002096
:104F500000BD00F01BF80028FAD00B4810F8230021
:104F600040B200280DDB00F01F02012191404009F2
:104F7000800000F1E020C0F88011BFF34F8FBFF335
:104F80006F8F012000BD0000B87C2010164A154923
:104F900002EB001208B1032801D900207047012854
:104FA00004D002280AD0032810D113E0086820F0AA
:104FB00001000860086820F0040006E0086820F09E
:104FC00008000860086820F0200008600020D06019
:104FD00001207047086820F040000860086820F44D
:104FE0008070F2E7300000C2BC8C2010064901EB53
:104FF000001138B1032805D8C868012802D0012063
:10500000C860704700207047BC8C201070B5044603
:1050100016461A480A46194950F8245000200C39FF
:10502000012C07D0022C07D0032C07D004B106D9DD
:10503000002070BD086002E0486000E08860214602
:105040000220FBF785F90028F3D02046FEF76EF921
:105050003146204600F06EF80028EAD068B2FBF036
:1050600027FA204600F00CF80028E2D02046FFF78F
:10507000BDFF0028DDD0012070BD0000B87C2010ED
:105080002B4908B1032801D9002070470A6822F093
:1050900004020A600A6842F001020A600A6842F0EB
:1050A00002020A600A6822F020020A600A6822F0FE
:1050B00008020A600A6822F010020A600A6822F4F4
:1050C00080720A600A6822F040020A600A6822F0D0
:1050D00080020A60012804D002280ED0032818D1CB
:1050E00019E0086820F004000860086820F001005A
:1050F0000860086820F002000AE0086820F020003C
:105100000860086820F008000860086820F01000B7
:10511000086001207047086820F480700860086803
:1051200020F040000860086820F08000F0E70000F0
:10513000380000C2074A30B502EB0013064A074D9B
:1051400052F820202D6854B205EB84042164C3E991
:10515000002130BDBC8C2010B87C201008ED00E090
:1051600070B50546FBF060FE2649044651F825005F
:105170008068606700F00F00062806D004281ED063
:105180000C281CD0022830D01FE051F825004069BF
:105190004FF00101820700D5E177420701D584F87D
:1051A0002210C20601D584F82010000701D584F82A
:1051B0002110607F48B1204600F026F805E0607FAE
:1051C0000028F8D151F825000068207F10B1204652
:1051D00000F06CF814F84C0F40B2FBF035F9207871
:1051E000BDE8704040B2FBF049B9207F10B12046C5
:1051F00000F05CF8607F0028ECD0204600F004F856
:10520000E8E700002C7B2010F0B501885FF0000576
:105210008BB2254951F82340A268D2B2C2F34106AD
:10522000032E11D16669F6070ED02468C76BC66AD3
:10523000F455C46B641CC463C46B466AB44200D3A7
:10524000C563446B641C446302F00F04042C16D045
:1052500002F00F020C2A11D151F823104A69096893
:10526000C36BC26AD154C16B491CC163C16B426A32
:10527000914200D3C563416B491C4163F0BD51F8B5
:10528000232054691268C66BC46AA255C26B521CB3
:10529000C263C26B446AA24200D3C563426B521C14
:1052A000426301224277B5E72C7B201030B490F89E
:1052B000741011F0C00100D001210288846A93B2F9
:1052C000856B244AAC421ED952F8234081B36169F0
:1052D0008906FCD5816A846B091B09B2002900DCB0
:1052E0000021046E8C420CD21021846B641C8463F8
:1052F000046B651C0563247852F823502C60491E0A
:1053000009B20029F1DC816A846BA1421FD152F8F5
:1053100023104A6992061AD54A6822F002024A60AE
:10532000002101778169002911D030BC0120084794
:10533000FFE761698906FCD5016B4C1C04630978A1
:1053400052F823402160816B491C8163DBE730BC4C
:10535000704700002C7B20101F4B08B1032801D997
:1053600000207047012804D0022812D0032820D141
:1053700021E0186861F341001860186840F00400EB
:105380001860186862F349201860186840F001003E
:105390000EE0186861F304101860186840F02000EF
:1053A0001860186862F38A201860186840F00800D6
:1053B000186001207047186861F3C71018601868FA
:1053C00040F480701860186862F3CB201860186889
:1053D00040F04000ECE70000300000C20FB4084B82
:1053E00010B504A902AA039801F022FF044602A9FD
:1053F0000020FBF0F1F8204610BC5DF814FB000023
:10540000D905201010B52DED028BB1EEC08A18EE33
:10541000100A20F00040C0F1FF40C00F0AD010EE8B
:10542000100A20F00040C0F1FF40C00F04BF01206F
:10543000FBF060F8B0EE480ABDEC028B10BD02E054
:1054400008C8121F08C1002AFAD17047704700200F
:1054500001E001C1121F002AFBD170472DE9F04F76
:105460000500DFF8FCB03F4893B04FF000044FF464
:1054700048794FF4167A02D0012D06D00DE000686D
:1054800000B18047FBF79EFA04E0806800B18047D6
:1054900004F0FCFFC84657465E462846FBF71AFB59
:1054A00000B10224282108A8FDF707FC08A9284616
:1054B000FBF032FA08B144F004041C2101A8FDF706
:1054C000FCFBCDE9027601A92846CDF80480FBF764
:1054D0003BFB08B144F00804FBF012FB90ED290AF5
:1054E0000646BCEEC00A10EE100A82B200EE102A88
:1054F000C2F30321D2B2B8EE400A284686ED290A4B
:1055000006F028F8B6F88C00C2B2C0F3072128468E
:10551000FBF704FB96F83011284606F007F801A9BE
:10552000284605F06FFF08B144F01004284605F046
:1055300033FF08B144F0200454B12B460A4A0BA1B2
:105540000220009409F040FB13B02046BDE8F08F24
:10555000044940F20110143121F81500F4E700006D
:1055600052415738007A2010741520105B25735D66
:10557000206572726F722C2063616D5F69647820A0
:105580003D2025642C20726574203D2025640D0A81
:10559000000000002DE9F0470026354698B02F4660
:1055A0000C2826D00D2826D0152826D0162826D03F
:1055B000172826D0182826D0112826D0122826D021
:1055C000132826D0142826D0042826D000280DD051
:1055D0000A2824D00E2809D0022807D00B2805D08D
:1055E00003463E4A3EA1012009F0EEFA18B0BDE89C
:1055F000F087062014E0072012E0022010E00320CC
:105600000EE005200CE004200AE00A2008E00C204F
:1056100006E00D2004E00E2002E0012000E00B2057
:10562000344660F30F044FF0010A08AB07AA06A93D
:1056300005A8FBF779FC012836D10CA80AF0F8FE82
:10564000BDF846C00598BDF8422000FB0CF090FB69
:10565000F2F1DDF81C80BDF8483008FB0CF8BDF80D
:1056600044900698DDF820C0584390FBF9F098FB71
:10567000F2F20CFB03FC9CFBF9F360F30F050591C0
:1056800061F31F441144089361F31F4506900344DE
:105690003146304663F30F0061F30F0761F31F409B
:1056A0000792064661F31F47DFF8488098F801002B
:1056B00000289BD1FBF7ECFFD8F81010401A6428A3
:1056C00094D93B46324629462046CDF800A00FF03B
:1056D00091FDFBF7DDFFC8F8100087E7B61C20102E
:1056E0005B25735D2C207265743D307825780D0A3A
:1056F00000000000B083201010B50446FBF000FA53
:1057000000EB84012046403109F080F9010004D00B
:105710002046FBF093FA012010BD002010BD70B5AB
:105720000546FBF0EDF90446FBF04AFC002807D1E2
:1057300004EB8500016C2846BDE87040FBF718BCFF
:1057400070BD000010B51C24FBF0DAF9D0ED3E0A64
:1057500090ED400AF4EEC00AF1EE10FA03DD00BF4E
:10576000B0EE401A01E0B0EE601A11EE100A01D35B
:10577000B0EE600A10EE101A4FF07C52904201DC3D
:10578000132402E0904200DC1424204610BD10B522
:1057900004461C201E2901DA182010BD194440F2CD
:1057A0003A23994201DD192010BD282C01DA182076
:1057B00003E0A118B1F53E7F03DC182803D01928B7
:1057C000F2D1162010BD172010BD000070B5254D78
:1057D00004464FF480660B2907D0012010290ED013
:1057E000112910D0192912D018E0102020700122A0
:1057F0000221304600F0C8F8FBF7F0FA0EE00B216A
:10580000217068710AE011212170687101E01A208D
:10581000207000220221304600F0B6F8286BFAF71B
:10582000D7FD20B9FBF0DCF9C068012819D96879E7
:1058300040B10DA1012009F0C7F9FE20012220701E
:10584000042107E010A1012009F0BEF9FD2001228A
:1058500020700221304600F097F8BDE87040FBF759
:10586000BDBA70BD187A20105B464143455F524572
:10587000434F474E4954494F4E5D2074696D656FE3
:1058800075740D0A000000005B464143455F5245B8
:10589000434F474E4954494F4E5D2074696D656FC3
:1058A0007574286E6F2066616365290D0A0000001B
:1058B0002DE9FF41234A064607CA8DE807006946DD
:1058C00003A806F031FB204C4FF4806870B1A0F5BE
:1058D00000710A3931D0E2690123521C1BA118461C
:1058E000E26109F071F9E069F0B918E0FBF008F93C
:1058F0000546BDF80C0001272071FAF777FF05F186
:105900004C00CDE9000795F86C3022791D49012043
:1059100009F05AF900200122307011460AE0FBF02C
:105920005FF9C06801280AD9FF20207103200122F5
:1059300030700221404600F027F8BDE8FF810120C9
:105940006071FAE714162010187A20105B4641495E
:105950004C5D204B4C3532305F464143455F4442FD
:105960005F4641494C2028636F756E746572203D17
:105970002025752C206D6178203D202575290D0A84
:1059800000000000EC20201070B514460E460546BD
:105990000DF076FFA84204D1FBF0EEFA3146FBF0A1
:1059A00037FD002C04D02846BDE87040FBF7D8BF77
:1059B00070BD00002DE9FF4F89B098461746FBF0F7
:1059C0009FF8069038884FEAE87201B2404661F3CA
:1059D0000F000291B988002661F31F4005903889B5
:1059E000414600B20090388A354603B20193B88A26
:1059F00063F30F0100B260F31F41039108EB927152
:105A000041F38F0101EBD172022707EB620217B25B
:105A1000DA1B3B443446B346B246B14612B200EB01
:105A2000070E079318E0DDF824C0034602FB0CFCC8
:105A3000CDF810C00BE000BFDDF82880DDF810C005
:105A400098449B1C1CF808C01BB2E344761C9E457E
:105A5000F2DC921C079B12B29342E4DC029A029B96
:105A6000521A3B440493431A12B20FFA83FE16E013
:105A7000DDF824C0734602FB0CFCCDF808C00AE038
:105A8000DDF82880DDF808C098449B1C1CF808C08D
:105A90001BB2E2446D1C9842F2DC921C12B2049BD1
:105AA0009342E5DC009A009BD21B0B4412B2029396
:105AB00011E0099F734602FB07FC07E00A9F1F44A1
:105AC0009B1C1CF807701BB2B944641C9842F5DC9F
:105AD000921C029B12B29342EBDCDFED4E1AF0EE09
:105AE000612AB0EE612A4EB100EE10BAF8EE400A1B
:105AF00000EE106AB8EEC00AC0EE802A4DB100EE8A
:105B000010AAF8EE400A00EE105AB8EEC00A80EE75
:105B1000802A4CB100EE109AF8EE400A00EE104ACE
:105B2000B8EEC00AC0EE801A0022B4EEE12AF1EE0F
:105B300010FA02D2B0EE613A01E0B0EE423AB4EEB1
:105B4000E23AF1EE10FA01D2B0EE623AB4EEE12A96
:105B5000F1EE10FA02DDF0EE613A01E0F0EE423AC9
:105B6000F4EEE23AF1EE10FA01DDF0EE623AB0EE58
:105B7000611AF0EE620AB0EE420AFAF755FE039897
:105B8000B6EE001A03B20598F0EE400A00B20844DF
:105B9000B0EE410A834202DAB5EE000A18E0DDE910
:105BA0000003411A8B4202DDB6EE080A10E073EEE4
:105BB000633A194913EE900A884209DD13EE100A80
:105BC0001649884204DB069890F8900000B1012243
:105BD000F7EE003A20EE022A33EEC00A002A00EE69
:105BE000212A32EE820A20EE010AB0EE081ABCEE3B
:105BF000C00A10EE100AB0EE000A43EE000A80EE72
:105C0000810A03D0BCEEC00A10EE100A0DB0BDE848
:105C1000F08F0000000000000000484200001B431D
:105C2000114810B5817A022908D0032906D0052928
:105C300004D0042902D0012902D006E0012010BDC1
:105C40008178022906D001290CD0FAF0C9FFC0687A
:105C5000002010BD04497431097A19B1007B40F06D
:105C6000400010BD022010BD187A201010B5FAF0C7
:105C7000B7FFC06801280DD80848817A012909D1E9
:105C80008078022802D0012806D003E0034874304F
:105C9000007A08B1002010BD012010BD187A201034
:105CA00010B5FAF09DFFC068012803D80248807A39
:105CB000012800D0002010BD187A201010B5FAF08D
:105CC0008FFFC068022812D80D49887A082815D09D
:105CD000897802290DD0012910D002280ED003287E
:105CE0000CD004280AD0052808D0062806D00020A9
:105CF00010BD03497431097A0029EED1012010BD8D
:105D0000187A20102DE9F84F83460A9E984646F0EF
:105D10008000009091468A46002558460BF060F8B6
:105D20004FF4FA5706E043464A4651465846009615
:105D30000BF056F828B1022416A1012008F044FF08
:105D400002E00AF08FFC0446E0B2FFF723FCA4F166
:105D50000A00142805D3042C05D001200CF0C0FF44
:105D60000CE01B2C0BD001200CF0BAFFFBF052F919
:105D700008B1022403E06D1CBD42D4DB34B1FAF05B
:105D800095FC18B1FAF074FC05F0BEF82046BDE8A9
:105D9000F88F000066616365207265742065727219
:105DA0002E2E2E0D0A00000010B5FBF771FC1A4CC8
:105DB000E16E401A04D4FBF76BFCE16E401A03E07D
:105DC000FBF766FCE16E081A642823DBFBF760FC36
:105DD0001249E066486F08B9886FA8B110488A6E0A
:105DE000904311D091F87D001C280CD191F87000DF
:105DF0001C2808D191F87C001C2804D108F07EFCF6
:105E0000782803D90D2010BD052010BD0A2801D225
:105E10000E2010BD1C2010BD187A2010B88720104D
:105E2000001100802DE9FF5F82B00021DDE9043020
:105E3000020DDDF840B0034318D044F61050A2F232
:105E4000FF3242431514119801281FD0A5EB0B0017
:105E5000401C5FEA000A4FF000064E4FDFF8389111
:105E6000B046504615D5CAF1000413E0119801243C
:105E70004AA3012801D16FEA0B010298119AC0E9E7
:105E80000031C0E9024206B0BDE8F09FCBF100004E
:105E9000DFE704460021404A491842EB0450CDE9AF
:105EA000001012E0E00707D032463B464046494624
:105EB000FDF714F98046894632463B46104619469E
:105EC000FDF70CF906460F466410002CEAD1DDE917
:105ED0000401DDE90023BAF1000F06DAFDF7FEF850
:105EE00042464B46FDF7FAF805E0FCF71AFF42463A
:105EF0004B46FCF716FF04460E460022284BFDF7E2
:105F000077F903D84FF0FF30014607E00022254B18
:105F100020463146FDF73BF8FDF752F9102409E021
:105F2000002C0ADB0A220023FCF793FF039B30328C
:105F30001A55641E50EA0102F2D1641C039AC4F19E
:105F400011031444119A012A03D0012208430DD1F0
:105F50000AE0084304D000204FF0110B119072E7C3
:105F6000A3EB0B056D1E0DE05B4504DD4FF0000259
:105F700005F1010504E003DA4FF00002A5F1010587
:105F8000002AECD002981199C0E90231C0E900451D
:105F900079E70000000014400000F03F30000000EE
:105FA0000000F0430000E03F054A00EB400102EB37
:105FB000810108B1062801D9002070474868704760
:105FC000308C2010F8B52749002591F82500009065
:105FD00091F8243091F8212011F8010B10F054FDB4
:105FE000214E224F224C10F0FF0F04D0A0F57F412C
:105FF000033933D019E01F480078022802D0012865
:1060000003D007E038781F2804D11BA1012008F035
:10601000DBFD0125E07D202803D0302801D05DB9CB
:106020001CE01BA1012008F0CFFDE07D202801D05D
:10603000302801D1FAF048F9707860B1FBF05EF9D0
:106040000AF038FDFAF046FFFBF73CF9174900204B
:1060500038700880F8BDFBF051F9F5E7002070704A
:10606000F8BD00003591201080832010B0832010EF
:10607000C8912010B38320106661636520656E723D
:106080006F6C6C2066696E69736865642E0D0A001A
:106090006661636520666D20696D706F727420663D
:1060A000696E69736865642E0D0A0000BC83201058
:1060B0002DE9F0411B4CA088FF28A0880AD804F0E5
:1060C00083FD28B1A088C0B2FBF010FA054619E0A4
:1060D00006251AE0C7B2A0883A46060A334612A13E
:1060E000012008F071FD31463846FAF7B3FA05464B
:1060F000942F01D1802E03D0942E03D1802F01D173
:10610000FBF0A0F8012D00D108250AF0D3FCFAF02D
:10611000E1FEFBF7D7F8A188E8B2BDE8F0410EF048
:106120003DBD00008083201064656C20736F6D6539
:10613000207573657273205B25643A25645D0D0AD2
:1061400000000000F8B5144F97F82110134C207888
:1061500002F088FB06460120FAF026FF9EB1104DA2
:1061600097F82500022E009028882378C2B24FEAC3
:1061700010210CD006200FF0BFF8FBF0BFF8002074
:1061800020702880F8BDBDE8F840FFF71BBF002055
:106190000FF0B2F8F8BD000035912010B083201048
:1061A000BC83201070B5174CA078002829D101209D
:1061B000A0700020FEF7A6FD0546024612A10120B0
:1061C00008F002FD0026022D10D22846FBF0C4F88C
:1061D00013A1012008F0F8FC05200CF081FDF9F76F
:1061E00085FF174806601748067005E016A10120D4
:1061F00008F0EAFCF9F77AFFA670BDE870400EF0EF
:10620000AFBC70BD808320102323232072756E5F86
:106210006F74613A2578202323230D0A00000000C3
:106220002323232073656E645F4F7461446F6E6532
:106230005F4E6F74655F6D7367202323230D0A0023
:10624000D8832010DC832010232323206F74612047
:1062500069646C65202323230D0A00002DE9F047B3
:1062600006460C30174688468146FAF014FF002493
:10627000254608E033693A46414630469847044689
:10628000001D03D16D1C7068A842F3DA4846FAF08D
:1062900009FF2046BDE8F08700B580680D4900EB96
:1062A000800001EB800141F205400A6850618A6874
:1062B00072B10846FAF05AF9074B02FB103052004F
:1062C000B0FBF2F0801EB0F5806F01D209688860E3
:1062D000002000BDE08B201000E1F50510B58068BE
:1062E0001C4A00EB800052F820201B48B2F1414FBD
:1062F00009D01A4BD2180ED0B2F5801F1AD0B2F5C1
:10630000001F11D11EE0026E22F0040201B104212F
:1063100001F0040106E0026E22F0080201B108213A
:1063200001F008010A4302664FF4FA7002F03EFEE3
:10633000002010BD026E22F0100201B1102101F008
:106340001001EFE7026E22F0200201B1202101F0DE
:106350002001E7E7E08B2010000030C20000F03E93
:1063600070B58568042D08DB2B46164A16A102205D
:1063700008F02AFC4FF0FF3070BD1C491C4E05EBA5
:10638000850001EB8004306818B90020FBF7AAF9FA
:106390003060012D14D0022D06D0032D02D04FF015
:1063A000414002E0134800E013482060052060608F
:1063B0001248206104F10C00FAF066FE002070BD66
:1063C0000F48F2E7C416201025733A206572723A1E
:1063D000206932635F6964202564206F7574206FC3
:1063E000662072616E67650A00000000E08B201075
:1063F000447B2010000030C1000020C1B5651010A2
:10640000000010C12DE9F0430E4680681B4900EBE7
:1064100080001B4F85B001EB80081C461546DDF857
:1064200030904FF0FF3138680CF0C0FDE8B2022C1C
:106430001DD08DF81000134902224869C9690090E7
:10644000029104A8ADF8006001908DF80340ADF80A
:10645000086069464046CDF80C90FFF7FFFE044601
:106460003868FBF757F905B02046BDE8F083290AE4
:106470008DF810108DF81100DDE70000E08B201082
:10648000447B2010C41620102DE9F0470E4680688A
:1064900086B01C4900EB80001B4FDDE90EA901EB23
:1064A00080081C4615464FF0FF3138680CF07EFD21
:1064B000E8B2022C1FD08DF8100014490222486A5D
:1064C000C96A0090029104A8ADF800600190ADF88F
:1064D00008608DF803408DF80B9069464046CDF872
:1064E0000CA0FFF7BBFE04463868FBF713F906B0B3
:1064F0002046BDE8F087290A8DF810108DF81100AC
:10650000DBE70000E08B2010447B2010C416201035
:1065100080680A4900EB800001EB800101200A68D5
:106520001060096800204CF250320B68DB0702D083
:10653000401C9042F9D3002070470000E08B2010EF
:106540002DE9FE4389468068184900EB8000184F0A
:1065500001EB80081C4615460A9E4FF0FF31386853
:106560000CF024FDE8B2022C18D08DF800008DF854
:10657000016000200190ADF80490641C8DF8074084
:10658000CDF808D0012201A94046FFF767FE044676
:106590003868FBF7BFF82046BDE8FE83290A8DF86E
:1065A00000108DF801008DF80260E2E7E08B20100A
:1065B000447B20102DE9F047002715468A46814686
:1065C0003E463C46A2F101080CE0444501D10122BF
:1065D00000E000220AEBC401484600F014F807006E
:1065E00004D1641CAC42F0DB00E0761CD9F800005A
:1065F0004068400704D5012002F0D8FC1F2EF4D9D2
:106600003846BDE8F0872DE9F05F04688878CE78D9
:1066100010F001070878D1F804904FEA40609346E3
:106620004FEA106000D0401CE060962020602021DE
:106630002046F9F7ECFF002824D14FF0860800250A
:10664000A6F1010A1CE0BBF1000F08D0554506D1A8
:1066500017B148F0600806E048F0200800E017B9DC
:1066600019F80500E060C4F8008020212046F9F701
:10667000CEFF002806D117B1E16809F805106D1C9E
:10668000B542E0DBBDE8F09F2DE9F04106462DED77
:10669000048BF0EE409A19EE900ADFED158ADDE9E1
:1066A0000A87144CB0EE609A94460D46B0EE688AA4
:1066B000A04206DD0A463146604600F01DF8F0EEC5
:1066C000408A19EE100AA04207DD3B462A463146B1
:1066D000404600F011F8B0EE408A29EEA80A69EEB3
:1066E000080ABDEC048B30EE200ABDE8F081000002
:1066F00000000000BD3786352DE9F04105461646FD
:106700000F461C461846F9F021FF9FED170A002896
:1067100027D016484FF480730021806800EB473083
:1067200000EB862202F5006255F8210001EE100A06
:1067300052F82100491C00EE900A994271EE600A5D
:1067400000EEA00AF0DBF9F74DFFDFED090A9FED3F
:10675000091A012C01D0002C03D160EE200A80EE32
:10676000810ABDE8F0810000000000005C84201078
:10677000B81E453FE17A843F70B5054604F024FA1F
:10678000094C78B1E8B2FAF085F80646A06800EB4B
:106790004630C068A84205D13046F9F713FF08B16A
:1067A000304670BD208870BD5C8420102DE9F04318
:1067B00089462DED048B064683B01F4990469FED18
:1067C0001D8A88680E9F00EB4630F0EE608A0269F1
:1067D0001D46B0EE409A49888A4201D90A4600E037
:1067E000026994B242698A4200D8416988B2A042E3
:1067F00017D3044615E000BFCDE90057F0EE680A54
:106800004346B0EE490A4A4621463046FFF73CFF70
:10681000B4EEC80AF1EE10FA01D2B0EE408A641E5E
:10682000A4B2012CE8D803B0B0EE480ABDEC048B4A
:10683000BDE8F08300401C465C84201030B40D4C51
:106840000B004FF40052A168E46801EB403104EB07
:10685000403007D0012B08D0022B08D130BC1822C1
:10686000FAF7C4BB30BCFAF7A1BB0021FAE730BC91
:10687000704700005C8420109FED070A5FF0000164
:1068800000EB8102491CD2ED000AFF2900EEA00AAC
:10689000F6DDF9F7A7BE000000000000F0B5124ECB
:1068A00045F6A527B56805EB4034276002276760E9
:1068B000E160012A02D1002161612161316909B1E0
:1068C000626100E02261052A0DD805EB403000210D
:1068D00000EB822053F8212000EB8104C4F800284B
:1068E000491CFF29F6DDF0BD5C8420102DE9F0473E
:1068F000824638480D462DED028B42F290314068B9
:1069000096B0471891465146384608F067FC40F269
:10691000011110B97E68012E05DA084616B0BDECEB
:10692000028BBDE8F0870022294638460EF05DFB59
:106930002A465146484608F001FD10B14FF48370D5
:10694000ECE7012E01DC0020E8E795ED070A4FF0A7
:1069500000085822BDEEC08A49466846FCF794F903
:1069600001242AE02246294638460EF03EFB2A46FC
:106970005146484608F0E2FCF0B9D9F85000B0F1B1
:106980007D5F02DAA96A012916D01349884202DA2A
:10699000A86A022810D0F8EEC80A95ED070AB4EEEE
:1069A000E00AF1EE10FA07DDA046BDEEC08A5822DB
:1069B00049466846FCF768F9641CB442D2DB42469B
:1069C000294638460EF011FB582269464846FCF726
:1069D0005BF9B8E7A48420109A99993EF0B5DFEDF1
:1069E000290ADDE90667DDF814C05D1AACEB020484
:1069F0008B4201D1944513D0731A6B43A7EB020C61
:106A00000CFB043300EE903A05FB05F304FB043362
:106A1000B8EEE01A00EE903AF8EEE01AC1EE210A64
:106A200001EE105AB8EEC11A21EE201ABDEEC11ABD
:106A300011EE103A01EE104A1944B8EEC11A61EE97
:106A4000200AFDEEE00A10EE903A1A448B1B00EE8D
:106A5000903AF8EEE00A60EE800AFDEEE00A10EEF1
:106A6000903A1944D31B00EE903AF8EEE00A20EE7B
:106A7000800ABDEEC00A10EE103A1A44C0E90012B6
:106A8000F0BD00000000000030B5D0ED021A90ED1E
:106A9000031A0124B0EE610AF0EE410A00EB04157E
:106AA00095ED022AB4EEE12AF1EE10FA01DDF0EEE6
:106AB000421AB4EEC02AF1EE10FA01D2B0EE420A48
:106AC00095ED032AB4EEC12AF1EE10FA01DDB0EE25
:106AD000421AB4EEE02AF1EE10FA01D2F0EE420AC8
:106AE000641C052CDADB71EEC01A31EE601AB7EEC9
:106AF000002A71EE821A31EE021AB6EE002A01EE79
:106B0000820A41EE020AF4EEC11ABDEEC00A81ED1E
:106B1000000ABDEEE00AF1EE10FA82ED000A01DD96
:106B2000B0EE611A9FED030A21EE000A83ED000A20
:106B300030BD0000CDCC0C402DE9F041104D044695
:106B40000E4AA8685368005D012814D06868C4EB39
:106B5000C40100EBC101066A086AD269861B1644AB
:106B6000CF6A4A6A496B3A440A44F11808F07CF843
:106B7000A968012008550020BDE8F0813C84201060
:106B80000C9220102DE9F047DFF81491454C804617
:106B9000D9F808706068002510B100297ED001E0A6
:106BA00041B110B102F0DEFB6560A06810B102F0E7
:106BB000D9FBA5603C4EB8F1000F2CD0B06800287E
:106BC00065D030682060606810B102F0CBFB656072
:106BD0002068C0EBC000C0000BF0BAF96060A8B13B
:106BE0002168C1EBC101CA002F49091DFCF74CF80F
:106BF0002C48702114302561FCF75FF82068C0EB49
:106C0000C00006EBC0004068E06037E027A102202A
:106C100007F0DAFF42E00221084608F057F8D9F8F9
:106C20001000C846C11904221E4808F01DF820684B
:106C3000401C2ED0606810B102F094FB65602068A3
:106C4000C0EBC000C0000BF083F960600028DDD00D
:106C50002168C1EBC101CA00D8F81410394408F00A
:106C600003F82068D8F81410C0EBC00001EBC00096
:106C7000C1190C4804220C3007F0F6FF20680BF015
:106C800067F9A0602168FCF718F8B5602068BDE8D6
:106C9000F0872560606802F065FB65600020F6E71C
:106CA0003C8420100C92201000C0E2615B455252DF
:106CB0005D20696E737566666963656E74206D65C7
:106CC0006D6F727920666F72206D6F64656C2069DC
:106CD0006E666F726D6174696F6E0A00094A10B555
:106CE0000CCA002109E000BFC1EBC10453F83440D5
:106CF000844201D148B210BD491C8A42F4D84FF0F9
:106D0000FF3010BD0C9220102DE9F041804604F0B8
:106D100057FC0646FAF038F80546F9F00FFEBB219D
:106D2000694300EB81042348002704F57D74007853
:106D3000A0BBFAF7ADFCC4F8CC021F4806EB8601F5
:106D400000EB8104606818B90020FAF789FC6060E4
:106D5000E06810B14FF0805601E04FF080464046A9
:106D600004F084FC4FF00058002301224146606883
:106D70000BF0FCFFC01C04D041466068FAF756FCDB
:106D80000127A6604FF0FF330122314660680BF007
:106D9000EDFF31466068FAF749FC17B10A20BDE8FB
:106DA000F081F9F0C5FD05EB450100EB8100C069FC
:106DB000F5E700003C842010E491201010B5044653
:106DC000204604F0FFFC411C05D0054A00EB800181
:106DD00042F8214010BD05200BF082FFF0E70000D3
:106DE000E491201070B51D461646F9F0F9FEC06812
:106DF00018B9FAF7B5FA040019D1F9F0F1FEC06834
:106E000018B90AF033F9040011D129463046FAF0D6
:106E100063F800221146C02009F06EFE040001D084
:106E2000002070BDFAF064F805490120C873F9F03C
:106E300061FE10B9012007F0C9F9204670BD0000BD
:106E4000187A20102DE9F041154D80460F46E8785C
:106E5000002608B1012400E000242246404605F047
:106E600043FB10B10220BDE8F081E8780021012841
:106E700000D10121A878012809D0022805D009A154
:106E8000012007F0A1FE3046EDE7052FFBD1224699
:106E9000404605F001F80028F5D00226F3E700008F
:106EA000187A20105B726567697374726174696F18
:106EB0006E5D203A202D2D204552524F52212C201C
:106EC0000D0A0000F8B50026054602240096FEF7DC
:106ED000F5FE0746F9F084FE0770F9F7BFFA07469A
:106EE000F9F07EFE80F88071F9F7D2FA0746F9F0E2
:106EF00077FE4770F9F702FB0746F9F071FE8770DD
:106F0000FEF78EFE0746F9F06BFE4760F9F7DAFAF6
:106F10000746F9F065FE0772F9F706FB0746F9F038
:106F20005FFE4772FEF7A2FE0746F9F059FE877230
:106F3000FEF7B6FE0746F9F053FEC772F9F050FEB1
:106F4000C06804280CD005F06DFF009028604E4DFD
:106F50000099A9B1A87A022804D0032802D006E03B
:106F60000098F3E7494800F0B3F8009840B1484969
:106F70000098884202D04749884204D1112477E022
:106F80000024AE6479E04449884202D043498842F3
:106F900001D113246CE0424988420AD04149884219
:106FA00007D03F49091D884203D03E49091D884248
:106FB00001D119245CE039497039884204D1FEF7C7
:106FC00055FE08B10E2451E00098022807D0012890
:106FD00007D0C11E032906D800F1120446E00C2494
:106FE00046E00D2444E02C496039884205D1FEF783
:106FF00017FE012801DD0A2438E0A87A022806D00D
:10700000062804D0032802D0012814D02EE06846B8
:1070100006F0FEFA810102D51024A86C02E0A96CEA
:107020000844A864502821DBA87A062801D00B2444
:107030001CE01B241AE01C49009888420BD01B4915
:10704000884208D01A49884205D01A49884202D09D
:107050001949884201D11E2408E00D49C0318842F7
:1070600003D00C49C031884200D10424009820B1DB
:10707000024612A1012007F0A7FDF9F0A1FF0128A7
:1070800000D1009C2046F8BD187A2010B887201047
:1070900040101080401020808020108080202080B0
:1070A00004001080040020800001028000010380A1
:1070B0000001058000010480008100806532655F69
:1070C0007265743A203078253038780D0A00000057
:1070D0007FB50E460446F9F083FD0546D0F812014F
:1070E0002060D5F816016060D5F81A01A060D5F8C7
:1070F0001E01E060282205F5927104F11000FBF7F3
:10710000C3FD282205F5A67104F13800FBF7BCFD8C
:10711000A666F9F031FD90ED140A84ED180AF9F035
:1071200013FD90ED140A01AB84ED190A6A4603A918
:1071300002A8F9F7F9FE1C25012810D0002060678D
:10714000A06784F8705084F87C500E48864202D0C4
:107150000D48864212D1112084F87D007FBD02982F
:1071600060670399A167DDE90023FEF710FB84F84F
:107170007000FEF7E7FA84F87C00E6E784F87D50BB
:107180007FBD0000401010804010208070B50F4C73
:107190000546A07A042814D1206C38B900231A4679
:1071A00019460B48FAF770FC206450B1FAF756FC08
:1071B00010B1206CFAF7A4FC4FF49671206CFAF72A
:1071C00083FC022D00D0656470BD0000187A201089
:1071D000CD0520100EB50021009101210191102153
:1071E0000291810703D503210191302102914007CB
:1071F00007D5019840F004000190029840F040004B
:1072000002900948816C0091019A01F007019142B6
:10721000F8D10648D0F8B0100091029A01F0700140
:107220009142F7D10EBD0000000030C2000038C20C
:107230002DE9FF4F95B09B468946064600250FE293
:10724000252877D100242746F84A0121059400E03B
:10725000044316F8013F203B01FA03F01042F7D136
:1072600030782A2811D06FF02F033078A0F1300247
:10727000092A16D8059A44F0020402EB820203EBB5
:1072800042021044761C0590EFE759F8042B059252
:10729000002A03DA504244F40054059044F00204FA
:1072A000761C30782E2816D116F8010F44F004040D
:1072B0002A280DD06FF02F023078A0F13003092B6F
:1072C00009D807EB870302EB4303C718761CF3E7E3
:1072D00059F8047B761C30786C280FD006DC4C28DB
:1072E00017D068280DD06A2814D104E0742810D073
:1072F0007A280FD10DE044F400140AE044F480141D
:1073000001E044F440147278824202D104F5801402
:10731000761C761C307866280BD013DC582877D082
:1073200009DC002875D04528F6D04628F4D0472837
:107330001AD19DE118E0632835D0642879D06528FA
:1073400012D195E1702873D008DC6728F1D0692844
:107350006FD06E280DD06F2806D1B5E073282CD0E1
:10736000752875D0782874D05A46179990476D1CA7
:1073700075E1C4F30250022809D003280DD0D9F8D2
:10738000001004280DD00D6009F1040967E1D9F857
:107390000010EA17C1E90052F6E7D9F800100D8095
:1073A000F2E70D70F0E719F8041B8DF800100020CB
:1073B0008DF80100EA46012003E059F804AB4FF0D4
:1073C000FF3061074FF0000102D40DE008F1010128
:1073D0008846B9420FDA8045F8DB1AF80810002910
:1073E000F4D108E008F1010188468142FADB1AF87D
:1073F00008100029F6D105985B46A0EB0807214646
:107400003846179A00F094FA284400EB080507E084
:107410004DE029E10DE01AF8010B5A461799904703
:10742000B8F10108F7D25B4621463846179A13E1B6
:1074300042E00A220092C4F302524FF0000A022AEC
:1074400008D059F804CB032A4FEAEC710AD00DE0BA
:1074500029E02AE009F1070121F00702F2E802C160
:10746000914609E00FFA8CFC4FEAEC71042A03D133
:107470004FFA8CFC4FEAEC71002907DA0A4600212A
:10748000DCF1000C61EB02012D2202E0220504D5A3
:107490002B228DF80420012203E0E20701D02022F4
:1074A000F7E7904659E00A2102E010220DE0102192
:1074B0004FF0000A00910BE010224FF0000A44F058
:1074C00004040827009203E008224FF0000A00920B
:1074D000C4F30252022A05D059F804CB0021032A32
:1074E00008D009E009F1070121F00702F2E802C122
:1074F000914605E01FFA8CFC042A01D10CF0FF0C28
:107500004FF00008220728D5702806D0009B83F092
:10751000100353EA0A0305D00EE040228DF8042040
:10752000012208E05CEA010206D030228DF8042036
:107530008DF8050002229046009B83F0080353EA71
:107540000A030AD15CEA010201D1620705D53022A3
:107550008DF804204FF001087F1E582804D034A075
:1075600003900EA802900DE036A0F9E7534660465E
:10757000009AFBF76EFC84460398825C0298401EDA
:10758000029002705CEA0100F0D1029806A9081A84
:1075900000F1200A600702D524F4803400E00127BE
:1075A000574502DDA7EB0A0000E0002000EB0A01CE
:1075B000009005984144401A0590E00306D45B46CC
:1075C0002146179A059800F0B3F90544002706E014
:1075D00001A85A46C05D179990476D1C7F1C47450E
:1075E000F6DBE0030CD55B462146179A059800F0C0
:1075F0009FF9054404E030205A46179990476D1CC6
:107600000099481E00900029F5DC08E002980299D4
:107610005A460078491C0291179990476D1CBAF19F
:107620000001AAF1010AF1DC65E10000092801006E
:1076300030313233343536373839616263646566E8
:1076400000000000303132333435363738394142AA
:10765000434445460000000000F058F90544761CFC
:10766000307800287FF4ECAD19B02846BDE8F08FE3
:10767000620700D4062709F1070222F0070CFCE894
:107680000223E14603F000485FEA080C02D00FF243
:10769000702C0DE05FEA045C02D50FF2682C07E065
:1076A0005FEAC47C02D00FF2602C01E0AFF2700CF4
:1076B0004FF0FF3823F00043CDF850C065280CD0C0
:1076C00006DC452809D046281DD047283DD13DE09D
:1076D000662818D067287ED138E00021112F01DB01
:1076E000112000E0781CCDE9000106A90EA8FEF7E4
:1076F00099FBDDE90F010E9A03910021009207F139
:10770000010A04914DE04FF000400097CDE90110CF
:1077100006A90EA8FEF786FBDDE90F0203920E9B79
:1077200011990022DDF80CA00093049211B9791C84
:1077300000EB010AB7EB0A0004D4C0F1FF3007F1F7
:10774000010A0490AAEB0700019044E0012F00DA3F
:1077500001270021112F01DD112000E03846CDE97D
:10776000000106A90EA8FEF75DFBDDE90F010E9AE8
:107770000391002104910092BA4621070CD4039989
:10778000514500DA8A46BAF1010F05DD009AAAF1E7
:107790000101515C302908D0B84202DA10F1040F1F
:1077A00006DA0121CDE9011015E0AAF10101E9E7AE
:1077B000002805DC049901440491AAEB000102E0D1
:1077C000411C514500DD8A460499401A401C019035
:1077D0004FF000400290200704D40198504501DB8F
:1077E000CDF8048000208DF84F0002980DF14F076E
:1077F000B0F1004F25D02B200E9002984FF00208D8
:1078000000280CDA404202902D200E9007E00A2159
:107810000298FBF708FB3031029007F8011DB8F120
:107820000001A8F10108F2DC02980028EFD1791ECE
:107830000E980870307800F0200040F0450007F8FE
:10784000020D12A8C01B00F107081498007800B1BF
:10785000012000EB0A01019801EBE0710598414419
:10786000401A401E0590E00306D45B462146179A55
:10787000059800F05DF805441498007818B15A4650
:10788000179990476D1CE00324D55B462146179A53
:10789000059800F04DF805441CE00498002807DB2B
:1078A000DDE90301884203DD0098405C179901E09F
:1078B000179930205A469047049805F10105401C5D
:1078C00004900198401E019004D12E205A46179929
:1078D00090476D1CBAF10001AAF1010ADDDC05E058
:1078E00017F8010B5A46179990476D1CB8F1000123
:1078F000A8F10108F4DC5B462146179A0598ABE62F
:107900002D0000002B000000200000002DE9F041B8
:10791000044600251E461746880404D405E039466F
:107920002020B0476D1C641EF9D52846BDE8F081C3
:107930002DE9F041044600251E469046C80301D5B6
:10794000302700E02027880404D505E0414638466A
:10795000B0476D1C641EF9D52846BDE8F0810000D3
:1079600008B1062801D900207047044A52F82000C7
:10797000026861F30002026001207047247C20103D
:10798000054B10B5002299051046F8F01BFFBDE825
:107990001040F8F025BF00000400000514284ED068
:1079A0000DDC14282DD2DFE800F02E30322C3436D6
:1079B000383A3C3E402C4244462C2C2C2C48322851
:1079C0004DD010DC182842D006DC152839D01628F6
:1079D00039D0172815D138E019283AD030283AD0B4
:1079E00031280ED139E0362841D006DC332838D092
:1079F000342838D0352804D137E0402839D0FF2842
:107A000039D01E4870471E4870471E4870471E48B0
:107A100070471E4870471E4870471E4870471E48F2
:107A200070471E4870471E4870471E4870471E48E2
:107A300070471E4870471E4870471E4870471E48D2
:107A400070471E4870471E4870471E4870471E48C2
:107A500070471E4870471E4870471E4870471E48B2
:107A600070471E4870471E4870471E4870471E48A2
:107A700070471E4870471E4870470000E8202010DD
:107A800028202010781E2010841E2010441F201053
:107A90009C1F20105C1F2010741F2010E81F201056
:107AA00000202010601E2010E81E20105C202010F6
:107AB000841F2010A81E2010BC1E2010442020105F
:107AC00014202010D41E2010A02020107020201080
:107AD000C8202010041F2010241F2010B4202010C4
:107AE000B81F20108820201034202010D01F201014
:107AF000901E2010F0B589B00024F9F053F9F9F781
:107B000033F905E00A200BF0EBF8642C45DC641C2B
:107B1000F8F0DCFF0028F5D0F9F024F90028F1D0C6
:107B200020221F496846FBF7AFF808266F4600255C
:107B3000002409E0204607F0C1FB57F82510006833
:107B4000814205D0641CE4B2F9F00CF9A042F1DCEA
:107B5000F9F008F9A04202DD60B2F9F787FA6D1C6E
:107B6000EDB2B542E4D300240EE02046F9F026F948
:107B7000012807D060B2F9F779FA224609A101205D
:107B800007F022F8641CE4B2F9F0ECF8A042ECDC57
:107B900009B0BDE8F040F9F0D9BC09B0F0BD000073
:107BA0003C1620106D6F64656C203A256420697363
:107BB000206E6F742066617374206C6F61646564FD
:107BC0002E0D0A00294C40F2DF752946A068F9F015
:107BD000CBFC410712D50FF0ABFAF9F033FB24A12F
:107BE000012006F0F1FF08F065FFF9F073F9F9F7ED
:107BF00069FB00202121F9F028FB2BE0010702D5C9
:107C0000FEF756FA26E0C10702D0FEF79BFA21E004
:107C1000410604D50FF0FCF9F9F0D9FB1AE0810711
:107C200014D50120F9F0C0F9A08810F0FF0100D1AF
:107C3000052100200FF092F808F03CFFF9F04AF916
:107C4000F9F740FB13490020087003E0800501D5D7
:107C5000FEF7A8FA00206070F9F0DCF90028B4D033
:107C60000121E0680BF054F8AFE70000808320109A
:107C700020756172745F73616D706C655F666163BE
:107C8000655F64656C5F616C6C206F7665720D0A70
:107C900000000000237A201010B50C4C64789CB9C9
:107CA000904201D2914207D2904201D1994203D829
:107CB000904209D9984207D20B46024604A10120FE
:107CC00006F082FF002010BD012010BDC0802010F2
:107CD000747279696E6720746F206D6F646966795C
:107CE00020666C6173683A25782C25782E0A0D0A77
:107CF000000000000C48F7EE000A807830B101283F
:107D000007D0032808D004280BD108E0DFED070ACC
:107D100007E0DFED070A04E0DFED060A01E0DFED32
:107D2000060A20EE800A7047AC842010D7A3703F6B
:107D3000EC51783F0AD7833F14AE873F10B52DED45
:107D4000028BB0EE608AF0EE408AF8F0D9FE88EE41
:107D5000881A90ED230AD0ED290A0446F8EE401A5D
:107D600060EEA11A11EE100A21EE818AB0F17E5F59
:107D70000EDA20EE810A84ED290AF9F713F8C8EE2D
:107D8000000A84ED290ABCEEE00A84ED230A13E020
:107D9000B8EE400A20EE010ABCEEC00A84ED230AC8
:107DA00006F098F800EE100AC4F88C00B8EE400A0D
:107DB000C8EE000AC4ED290A06F08CF8C4F88C005D
:107DC000F8F7F0FF84ED290A04F1A40000F020F98F
:107DD00034F88C0FC2B2C0F3072108480078F8F7D6
:107DE0009DFE2088C2B2C0F3072105480078BDEC93
